{
  "contractName": "GreatToken",
  "abi": [
    {
      "inputs": [],
      "payable": false,
      "stateMutability": "nonpayable",
      "type": "constructor"
    },
    {
      "constant": true,
      "inputs": [],
      "name": "_totalSupply",
      "outputs": [
        {
          "internalType": "uint256",
          "name": "",
          "type": "uint256"
        }
      ],
      "payable": false,
      "stateMutability": "view",
      "type": "function"
    }
  ],
  "bytecode": "0x6080604052348015600f57600080fd5b50629896806000819055506084806100286000396000f3fe6080604052348015600f57600080fd5b506004361060285760003560e01c80633eaaf86b14602d575b600080fd5b60336049565b6040518082815260200191505060405180910390f35b6000548156fea265627a7a723158204182308791b2e6806ae7e5bfd882c3b54d27522f7daac5a8d857a748e2dfa6ef64736f6c63430005100032",
  "source": "// SPDX-License-Identifier: MIT\npragma solidity >=0.4.20;\n\n\ncontract GreatToken{\n    uint256 public _totalSupply;\n    // Constructor\n    // Set the total \n\n    constructor() public {\n        _totalSupply = 10000000;\n\n    }\n}",
  "sourcePath": "/Users/macbook/Documents/Projects/Token-erc20/contracts/GreatToken.sol",
  "compiler": {
    "name": "solc",
    "version": "0.5.16+commit.9c3226ce.Emscripten.clang"
  },
  "schemaVersion": "3.4.0",
  "updatedAt": "2021-04-26T17:03:31.763Z",
  "networkType": "ethereum",
  "devdoc": {
    "methods": {}
  },
  "userdoc": {
    "methods": {}
  }
}